:020000040000FA
:100000000C945D000C9485000C9485000C94850084
:100010000C9485000C9485000C9485000C9485004C
:100020000C9485000C9485000C9485000C9485003C
:100030000C9485000C9485000C9485000C9485002C
:100040000C940D060C9485000C94DB050C94B505FE
:100050000C9485000C9485000C9485000C9485000C
:100060000C9457060C948500000000080002010063
:100070000003040700000000000000000000000072
:10008000250028002B0000000000240027002A0083
:10009000040404040404040402020202020203032E
:1000A0000303030301020408102040800102040836
:1000B0001020010204081020850711241FBECFEF75
:1000C000D8E0DEBFCDBF11E0A0E0B1E0E4EEFCE19E
:1000D00002C005900D92A237B107D9F723E0A2E73D
:1000E000B1E001C01D92AD36B207E1F710E0CDE5F9
:1000F000D0E004C02197FE010E94650ECC35D107E7
:10010000C9F70E94BE070C94700E0C94000090E09A
:10011000FC01EC55FF4F2491FC01E057FF4F849107
:10012000882399F090E0880F991FFC01EA57FF4F50
:10013000A591B491FC01E458FF4F859194918FB73C
:10014000F894EC91E22BEC938FBF0895382F209117
:10015000780290917702213208F049C080915402D0
:100160008111FCCF42E040935402309353023FEFA1
:10017000309352021092510220935002A7E5B2E050
:1001800040E352E0FA013E2F341B321718F43D9140
:100190003193F9CF10922F0220912F02990F922BB9
:1001A00090932F0290912E02913061F410922E02C2
:1001B00090912F029093BB009091BC0093FDF8CFDB
:1001C00095EC01C095EE9093BC0090915402923052
:1001D000E1F3909152029F3F79F080915202803278
:1001E00041F080915202803331F084E005C081E01B
:1001F00003C082E001C083E01092560210927802A0
:1002000010925502089580910C0290E020910D0209
:10021000821B91090895E0917902F0917A02019090
:10022000F081E02D682F89E792E00994CF92DF9268
:10023000EF92FF920F931F93CF93DF936C017A019C
:100240008B01C0E0D0E0CE15DF0589F0D8016D91BB
:100250008D01D601ED91FC910190F081E02DC60158
:100260000995892B11F47E0102C02196ECCFC701BC
:10027000DF91CF911F910F91FF90EF90DF90CF9082
:100280000895FC01538D448D252F30E0842F90E09C
:10029000821B930B541710F0CF9608950197089581
:1002A000FC01918D828D981761F0828DDF01A80F7E
:1002B000B11D5D968C91928D9F5F9F73928F90E0A0
:1002C00008958FEF9FEF0895FC01918D828D98170F
:1002D00031F0828DE80FF11D858D90E008958FEF4C
:1002E0009FEF0895FC01918D228D892F90E0805C15
:1002F0009F4F821B91098F739927089589E792E098
:100300000E94720121E0892B09F420E0822F0895D8
:10031000FC01848DDF01A80FB11DA35ABF4F2C91A2
:10032000848D90E001968F739927848FA689B78971
:100330002C93A089B1898C9180648C93938D848D4A
:10034000981306C00288F389E02D80818F7D808319
:100350000895EF92FF920F931F93CF93DF93EC01D9
:1003600081E0888F9B8D8C8D981305C0E889F98971
:10037000808185FD24C0F62E0B8D10E00F5F1F4F8E
:100380000F731127E02E8C8DE8120CC00FB607FCFE
:10039000FACFE889F989808185FFF5CFCE010E94E7
:1003A0008801F1CF8B8DFE01E80FF11DE35AFF4F5D
:1003B000F0820B8FEA89FB898081806207C0EE8919
:1003C000FF896083E889F98980818064808381E086
:1003D00090E0DF91CF911F910F91FF90EF900895E2
:1003E000CF93DF93EC01888D8823C9F0EA89FB89DC
:1003F000808185FD05C0A889B9898C9186FD0FC0D3
:100400000FB607FCF5CF808185FFF2CFA889B989A7
:100410008C9185FFEDCFCE010E948801E7CFDF915F
:10042000CF91089580E090E0892B29F00E947E0111
:1004300081110C940000089590E0FC01E859FF4FF1
:100440003491FC01EC55FF4F2491FC01E057FF4F24
:10045000E491EE2309F43BC0332339F1333091F0BA
:1004600038F43130A9F0323001F584B58F7D12C0F7
:10047000373091F03830A1F03430B9F480918000F9
:100480008F7D03C0809180008F77809380000DC0A6
:1004900084B58F7784BD09C08091B0008F7703C089
:1004A0008091B0008F7D8093B000F0E0EE0FFF1FD1
:1004B000E458FF4FA591B4918FB7F894EC91611176
:1004C00003C020952E2301C02E2B2C938FBF08959F
:1004D0003FB7F8948091BE019091BF01A091C001F7
:1004E000B091C10126B5A89B05C02F3F19F0019618
:1004F000A11DB11D3FBFBA2FA92F982F8827820FAA
:10050000911DA11DB11DBC01CD0142E0660F771FF9
:10051000881F991F4A95D1F708958F929F92AF92A5
:10052000BF92CF92DF92EF92FF926B017C010E940B
:1005300068024B015C01C114D104E104F104F1F043
:100540000E946802DC01CB0188199909AA09BB093C
:10055000883E9340A105B10570F321E0C21AD1088D
:10056000E108F10888EE880E83E0981EA11CB11CFA
:10057000C114D104E104F10419F7DDCFFF90EF902D
:10058000DF90CF90BF90AF909F908F90089585EDB2
:100590008093BC008091BC0084FDFCCF109254027B
:1005A000089540919401262F30E0240F311D21320F
:1005B0003105DCF4209154022430C9F4FC0180E0C0
:1005C00090E0861758F4309194012191DC01AE58E7
:1005D000BE4FA30FB11D2C930196F3CF80919401D0
:1005E000680F6093940180E0089581E0089582E0AF
:1005F00008950895E0910D0280910C02E81730F4FF
:10060000F0E0E25FFD4F808190E008958FEF9FEF73
:10061000089590910D0280910C02981750F4E92FE3
:10062000F0E0E25FFD4F208130E09F5F90930D028C
:1006300002C02FEF3FEFC9010895CF92DF92EF92F2
:10064000FF920F931F93CF93DF937C01262F972F59
:100650008A0180915502882391F0C62FD72F6E0111
:10066000C40ED51ECC15DD0571F06991D701ED9151
:10067000FC910190F081E02DC7010995F3CF642F23
:10068000822F0E94D102C801DF91CF911F910F915B
:10069000FF90EF90DF90CF90089521E020935502D6
:1006A00027E720937702109256021092780242E0D8
:1006B00050E0BC0186E193E00E941D0381E00E94AE
:1006C000A600982F80936C0381E0911180E008953B
:1006D000CF93DF931F92CDB7DEB769832091550288
:1006E0002223D1F020917802203240F021E030E046
:1006F000FC013383228380E090E015C08091560294
:10070000E82FF0E0E95AFD4F998190838F5F809345
:1007100056028093780205C061E0CE0101960E94E6
:10072000D10281E090E00F90DF91CF91089508957C
:1007300080E090E00895009769F0FC0101900020AE
:10074000E9F73197AF01481B590BBC0189E792E0EB
:100750000C94160180E090E00895CF93DF930E94FF
:100760009B03EC0184E291E00E949B038C0F9D1F90
:10077000DF91CF9108958F929F92AF92BF920F9386
:100780001F93CF93DF93CDB7DEB7A1970FB6F89441
:10079000DEBF0FBECDBF19A2423008F44AE08E0181
:1007A0000F5D1F4F842E912CA12CB12CA50194011B
:1007B0000E94430EE62FB901CA0101501109EA3027
:1007C00014F4E05D01C0E95CD801EC93232B242BE9
:1007D000252B61F7C8010E949B03A1960FB6F894E0
:1007E000DEBF0FBECDBFDF91CF911F910F91BF90A4
:1007F000AF909F908F900895EF92FF920F931F9369
:10080000CF93DF938C01C62F81E08093550287E759
:10081000809377021092560210927802F80160815C
:1008200086E193E00E94680381E00E94A600809325
:100830006C03811163C04C2F0C2E000C550B809162
:1008400054028111FCCF2C2FC13208F020E281E04C
:1008500080935402809353029FEF90935202109220
:100860005102920F9093500280932F0290912F0289
:100870009E6E90932F0280912E02813061F410922F
:100880002E0280912F028093BB008091BC0083FDDB
:10089000F8CF85EC01C085EE8093BC0080915402B6
:1008A0008130E1F380915102821710F420915102BE
:1008B000A0E3B2E06EE072E0FB018E2F861B821790
:1008C00018F48D918193F9CF10920D0220930C02B0
:1008D00030E024173507E9F7D0E0DC176CF4780135
:1008E000ED0EF11CD7FDFA9486E193E00E94090316
:1008F000F7018083DF5FF1CF81E001C080E0DF910D
:10090000CF911F910F91FF90EF9008950F931F9338
:10091000CF93DF9300D0CDB7DEB78B01898362E040
:10092000CE0101960E94FC03882359F0898190E052
:10093000982F88272A81822BF8019183808381E078
:1009400003C0F801118210820F900F90DF91CF91B8
:100950001F910F9108950F931F93CF93DF9300D0B2
:10096000CDB7DEB78B01898362E0CE0101960E948C
:10097000FC03882359F0898190E0982F88272A81E9
:10098000822BF8019183808381E003C0F8011182FA
:1009900010820F900F90DF91CF911F910F910895CA
:1009A0004F925F926F927F928F929F92AF92BF927F
:1009B000CF92DF92EF92FF926B017C01B42E9B01EC
:1009C000AC010E943E0E882319F087E291E027C017
:1009D00026013701E89477F82FEF3FEF4FE75FE705
:1009E000C301B2010E943E0E81110DC02FEF3FEFF7
:1009F0004FE75FE7C301B2010E94740C18161CF4A4
:100A00008BE291E00CC02FEF3FEF4FE75FE4C701AF
:100A1000B6010E94CC0D181684F48FE291E0FF908D
:100A2000EF90DF90CF90BF90AF909F908F907F908E
:100A30006F905F904F900C949B032FEF3FEF4FE729
:100A40005FECC701B6010E94740C87FDE6CF20E081
:100A500030E0A901C701B6010E94740C87FF09C0EC
:100A60008DE20E940B014C01F7FAF094F7F8F09434
:100A700002C0812C912CA12C60E070E080E09FE30B
:100A8000AB1441F020E030E040E251E40E94790CE8
:100A9000A394F6CF9B01AC01C701B6010E94080CDC
:100AA0002B013C010E94EB0C6B017C010E941A0D92
:100AB0009B01AC01C301B2010E94070C2B013C0158
:100AC0004AE0C701B6010E94BB037C01E80CF91C97
:100AD000BB2029F08EE20E940B01E80EF91EDB2CF0
:100AE000DD2021F120E030E040E251E4C301B20119
:100AF0000E94D10D2B013C010E94EB0C4B01A12C5B
:100B0000B12C4AE0C501B4010E94BB03E80EF91EF6
:100B1000C501B4010E941A0D9B01AC01C301B201D1
:100B20000E94070C2B013C01DA94DACFC701FF9039
:100B3000EF90DF90CF90BF90AF909F908F907F907D
:100B40006F905F904F900895CF93DF9342E00E94A3
:100B5000D004EC0184E291E00E949B038C0F9D1F66
:100B6000DF91CF9108950E946B0E1F920F920FB6E6
:100B70000F9211242F933F934F935F936F937F9323
:100B80008F939F93AF93BF93EF93FF9389E792E087
:100B90000E948801FF91EF91BF91AF919F918F913A
:100BA0007F916F915F914F913F912F910F900FBE69
:100BB0000F901F9018951F920F920FB60F9211244D
:100BC0002F938F939F93EF93FF93E0918902F0917E
:100BD0008A028081E0918F02F091900282FD12C022
:100BE0009081809192028F5F8F7320919302821780
:100BF00051F0E0919202F0E0E758FD4F958F80931D
:100C0000920201C08081FF91EF919F918F912F916E
:100C10000F900FBE0F901F9018951F920F920FB656
:100C20000F9211242F933F938F939F93AF93BF9372
:100C30008091BA019091BB01A091BC01B091BD011E
:100C40003091B90123E0230F2D3720F40196A11D27
:100C5000B11D05C026E8230F0296A11DB11D2093EA
:100C6000B9018093BA019093BB01A093BC01B093EA
:100C7000BD018091BE019091BF01A091C001B091D2
:100C8000C1010196A11DB11D8093BE019093BF01CA
:100C9000A093C001B093C101BF91AF919F918F917B
:100CA0003F912F910F900FBE0F901F9018951F929C
:100CB0000F920FB60F9211242F933F934F935F9390
:100CC0006F937F938F939F93AF93BF93EF93FF9314
:100CD0008091B900887F803609F49CC068F588321D
:100CE00009F45BC090F4803109F454C038F48823CF
:100CF00009F4F6C0883009F44DC0F6C0883109F413
:100D00004CC0803209F45DC0EFC0803409F468C083
:100D100048F4803309F455C0883309F0E5C0809366
:100D20005202D8C0803509F44FC0883509F45DC03F
:100D3000883409F0D9C0D6C0883909F4C7C0A8F4EE
:100D4000883709F467C038F4883609F463C08037FF
:100D500009F460C0C9C0883809F4B8C0803909F402
:100D60005FC0803809F0C0C05BC0803B09F486C01A
:100D700038F4803A09F466C0883A09F47FC0B4C0F8
:100D8000803C09F4A7C0883C09F4A4C0883B09F45E
:100D90008AC0AAC080912F0210C090915102809108
:100DA0005002981770F5E091510281E08E0F809308
:100DB0005102F0E0E05DFD4F80818093BB0085EC47
:100DC00086C0809352028EC0E091510281E08E0F66
:100DD000809351028091BB00F0E0E05DFD4F808385
:100DE00090915102809150026EC0E091510281E0D9
:100DF0008E0F809351028091BB00F0E0E05DFD4FCB
:100E000080838091530281116DC081E080932E0216
:100E100084EA61C083E0809354021092B801CFCF7E
:100E20008091B801803208F051C0E091B80181E0B2
:100E30008E0F8093B8018091BB00F0E0E856FE4F22
:100E40008083BDCF85EC8093BC00109254028091CA
:100E5000B801803230F4E091B801F0E0E856FE4F7E
:100E600010826091B80170E0E0919601F0919701D5
:100E700088E991E009951092B80136C084E080932A
:100E800054021092950110929401E0919201F09118
:100E90009301099580919401811105C081E08093AF
:100EA000940110927201E091950181E08E0F809380
:100EB0009501F0E0EE58FE4F80818093BB00909149
:100EC000950180919401981708F479CF85E8809373
:100ED000BC000AC085EC8093BC001092540204C090
:100EE000109252020E94C702FF91EF91BF91AF9101
:100EF0009F918F917F916F915F914F913F912F9132
:100F00000F900FBE0F901F901895E9E7F2E0138243
:100F1000128288EE93E0A0E0B0E084839583A683FC
:100F2000B78324E031E03183208325EC30E035873E
:100F3000248724EC30E03787268720EC30E0318BA3
:100F4000208B21EC30E0338B228B22EC30E0358B90
:100F5000248B26EC30E0378B268B118E128E138E6D
:100F6000148EE6E1F3E01382128284839583A683D4
:100F7000B78386E191E0918380830895CF93DF93D7
:100F8000CDB7DEB727970FB6F894DEBF0FBECDBF43
:100F9000789484B5826084BD84B5816084BD85B554
:100FA000826085BD85B5816085BD80916E00816060
:100FB00080936E0010928100809181008260809306
:100FC0008100809181008160809381008091800008
:100FD0008160809380008091B10084608093B10033
:100FE0008091B00081608093B00080917A0084602D
:100FF00080937A0080917A00826080937A00809159
:101000007A00816080937A0080917A008068809372
:101010007A001092C100E0918902F0918A0282E088
:101020008083E0918502F09186021082E091870230
:10103000F09188028FEC808310929102E0918D02F2
:10104000F0918E0286E08083E0918B02F0918C0219
:10105000808180618083E0918B02F0918C0280819D
:1010600088608083E0918B02F0918C02808180689F
:101070008083E0918B02F0918C0280818F7D808350
:1010800010920D0210920C021092560210927802E9
:101090001092540281E08093530210922E0261E07C
:1010A00082E10E941C0261E083E10E941C028091A7
:1010B000B9008E7F8093B9008091B9008D7F8093B5
:1010C000B90088E48093B80085E48093BC0062E2B4
:1010D00073E08AEA0E948604882309F496C364E2D6
:1010E00073E08CEA0E948604882309F48EC366E2CA
:1010F00073E08EEA0E948604882309F486C362E3C3
:1011000073E080EB0E94AB04882309F47EC364E3A0
:1011100073E082EB0E94AB04882309F476C366E394
:1011200073E084EB0E94AB04882309F46EC368E289
:1011300073E086EB0E948604882309F466C36AE2A2
:1011400073E088EB0E948604882309F45EC36CE296
:1011500073E08AEB0E948604882309F456C36EE28A
:1011600073E08CEB0E948604882309F44EC360E38D
:1011700073E08EEB0E948604882309F446C36091D5
:10118000260370912703072E000C880B990B0E94F1
:101190001C0D20E030E040EA5BE30E94D10D2B0102
:1011A0003C01609132037091330380E090E00E9433
:1011B0001A0D2FE632E143E053E30E94D10D4B01BB
:1011C0005C016091280370912903072E000C880BA5
:1011D000990B0E941C0D20E030E048EC57E30E9480
:1011E000D10D6C837D838E839F83609134037091D6
:1011F000350380E090E00E941A0D2DEC3CEC4CE4AD
:1012000054E30E94D10D60933803709339038093A7
:101210003A0390933B03609136037091370380E06B
:1012200090E00E941A0D60933C0370933D038093FD
:101230003E0390933F0360912E0370912F03072E7E
:10124000000C880B990B0E941C0D2AE037ED43EA35
:101250005DE30E94D10D609340037093410380933E
:101260004203909343036091300370913103072E42
:10127000000C880B990B0E941C0D20E030E040E22E
:1012800053E40E94790C6093440370934503809368
:101290004603909347036091220370912303072E26
:1012A000000C880B990B0E941C0D609348037093EF
:1012B000490380934A0390934B03609124037091F8
:1012C0002503072E000C880B990B0E941C0D20E0B3
:1012D00030E040EA5CE30E94D10D60934C037093D0
:1012E0004D0380934E0390934F0360912A037091B6
:1012F0002B03072E000C880B990B0E941C0D20E07D
:1013000030E048E45AE30E94D10D6093500370939B
:101310005103809352039093530320E030E040E068
:1013200057E4C501B4010E94D10D6093540370933A
:1013300055038093560390935703A3019201C5016F
:10134000B4010E94D10D60935803709359038093A8
:101350005A0390935B032C813D814E815F81C501CF
:10136000B4010E94D10D60935C0370935D03809380
:101370005E0390935F038CEE91E5A7E1B0E4809368
:10138000600390936103A0936203B093630380E3CF
:1013900094E3AEE7BFE38093640390936503A09367
:1013A0006603B093670380E097E5A4E9B6E3809312
:1013B000680390936903A0936A03B0936B0311E0F1
:1013C0008CE00E9487008DE00E948700112321F0AD
:1013D00083E391E00E94AD0344EF342E56EF252EB7
:1013E00009E010E039828EE28A83CE0101960E94E4
:1013F0004D03882309F45EC162E370E080E090E071
:101400000E948D02298262E0CE0101960E94FC03B7
:10141000882309F44FC1698170E080E090E00E9468
:101420001C0D20E030E040E853E40E94D10D4B0158
:101430005C016A8170E080E090E00E941C0D9B01DD
:10144000AC01C501B4010E94080C20913C0330910D
:101450003D0340913E0350913F030E94070C2091B1
:1014600038033091390340913A0350913B030E9475
:10147000D10D4B015C012091440330914503409113
:101480004603509147030E94080C9B01AC016091F8
:1014900040037091410380914203909143030E9465
:1014A000790C9B01AC01C501B4010E94080C4B01F1
:1014B0005C0139823A82CE0101960E944D03882355
:1014C00009F4F8C06AE170E080E090E00E948D02CB
:1014D000298263E0CE0101960E94FC03882309F46F
:1014E000E9C020E030E048EC51E4C501B4010E94BD
:1014F000070C6B017C019B01AC010E94D10D4B01DB
:101500005C01698170E080E090E00E941C0D20E0A9
:1015100030E040E853E40E94D10D2B013C016A8188
:1015200070E080E090E00E941C0D9B01AC01C301C3
:10153000B2010E94080C2B013C016B8170E080E03D
:1015400090E00E941C0D20E030E040E85BE30E9448
:10155000D10D9B01AC01C301B2010E94080C6C8348
:101560007D838E839F83209150033091510340915E
:10157000520350915303C501B4010E94D10D2B01B8
:101580003C0120914C0330914D0340914E0350910A
:101590004F03C701B6010E94D10D9B01AC01C301ED
:1015A000B2010E94080C20914803309149034091F8
:1015B0004A0350914B030E94080C9B01AC016C81C3
:1015C0007D818E819F810E94070C2B013C0120911F
:1015D0005C0330915D0340915E0350915F03C50150
:1015E000B4010E94D10D4B015C0120915803309150
:1015F000590340915A0350915B03C701B6010E9401
:10160000D10D9B01AC01C501B4010E94080C2091D1
:1016100054033091550340915603509157030E9453
:10162000080C9B01AC01C301B2010E94790C6B0153
:101630007C019B01AC010E94D10D20916803309187
:10164000690340916A0350916B030E94D10D4B01D5
:101650005C012091640330916503409166035091D1
:101660006703C701B6010E94D10D9B01AC01C50102
:10167000B4010E94080C20916003309161034091F5
:101680006203509163030E94080C20E030E048ECB4
:1016900052E40E94D10D6B017C0187E491E00E942D
:1016A0009B0342E0C701B6010E94D00482E591E0AD
:1016B0000E94AD0320E030E048EC52E4C701B601DF
:1016C0000E94D10D6B017C01E0910A02F0910B02A6
:1016D000EE0FFF1FEE0FFF1FEA51FE4F6083718375
:1016E0008283938387E591E00E949B03C701B60143
:1016F0000E94A4058DE591E00E949B03E0910A02FF
:10170000F0910B02EE0FFF1FEE0FFF1FEA51FE4F8D
:1017100060817181828193810E94A40580910A0277
:1017200090910B02019690930B0280930A028FE630
:1017300091E00E94AD0380900A0290900B02092C68
:10174000000CAA08BB08B7FE0CC08DE20E940B017A
:1017500066277727CB01681979098A099B094AE02E
:1017600003C04AE0C501B4010E94BB0384E291E0DA
:101770000E949B0310930B0200930A0282ECA82E96
:1017800081E0B82E96EE892E91E0992EF401819198
:101790009191A191B1914F01F50181939193A19301
:1017A000B1935F01BC01CD010E94A405FEE08F163C
:1017B000F2E09F0659F710920B0210920A0220E005
:1017C00030E040EA50E4C701B6010E94CC0D181683
:1017D0003CF460E08DE00E941C0261E08CE010C0EF
:1017E00020E030E040EA50E4C701B6010E94740CEA
:1017F000181644F060E08CE00E941C0261E08DE06D
:101800000E941C020E941202EDCD10E0D9CD50586A
:10181000BB27AA270E941F0C0C94920D0E94840DD6
:1018200038F00E948B0D20F039F49F3F19F426F414
:101830000C94810D0EF4E095E7FB0C947B0DE92FE1
:101840000E94A30D58F3BA17620773078407950720
:1018500020F079F4A6F50C94C50D0EF4E0950B2E4E
:10186000BA2FA02D0B01B90190010C01CA01A001F2
:101870001124FF27591B99F0593F50F4503E68F14D
:101880001A16F040A22F232F342F4427585FF3CF8E
:10189000469537952795A795F0405395C9F77EF45F
:1018A0001F16BA0B620B730B840BBAF09150A1F0A8
:1018B000FF0FBB1F661F771F881FC2F70EC0BA0F2E
:1018C000621F731F841F48F4879577956795B795B6
:1018D000F7959E3F08F0B0CF9395880F08F09927B1
:1018E000EE0F9795879508950E94570D08F481E0B3
:1018F00008950E948D0C0C94920D0E948B0D58F04F
:101900000E94840D40F029F45F3F29F00C947B0D78
:1019100051110C94C60D0C94810D0E94A30D68F317
:101920009923B1F3552391F3951B550BBB27AA2798
:1019300062177307840738F09F5F5F4F220F331FD2
:10194000441FAA1FA9F335D00E2E3AF0E0E832D09A
:1019500091505040E695001CCAF72BD0FE2F29D09D
:10196000660F771F881FBB1F261737074807AB076F
:10197000B0E809F0BB0B802DBF01FF2793585F4FE4
:101980003AF09E3F510578F00C947B0D0C94C60DF7
:101990005F3FE4F3983ED4F3869577956795B795C6
:1019A000F7959F5FC9F7880F911D9695879597F9D1
:1019B0000895E1E0660F771F881FBB1F621773074A
:1019C0008407BA0720F0621B730B840BBA0BEE1F5F
:1019D00088F7E09508950E94AB0D88F09F5798F026
:1019E000B92F9927B751B0F0E1F0660F771F881F24
:1019F000991F1AF0BA95C9F714C0B13091F00E943E
:101A0000C50DB1E008950C94C50D672F782F882778
:101A1000B85F39F0B93FCCF3869577956795B39564
:101A2000D9F73EF490958095709561957F4F8F4FD3
:101A30009F4F0895E89409C097FB3EF490958095D8
:101A4000709561957F4F8F4F9F4F9923A9F0F92F84
:101A500096E9BB279395F695879577956795B79502
:101A6000F111F8CFFAF4BB0F11F460FF1BC06F5FE8
:101A70007F4F8F4F9F4F16C0882311F096E911C0FA
:101A8000772321F09EE8872F762F05C0662371F01B
:101A900096E8862F70E060E02AF09A95660F771F2F
:101AA000881FDAF7880F9695879597F90895990F0B
:101AB0000008550FAA0BE0E8FEEF16161706E80718
:101AC000F907C0F012161306E407F50798F0621B39
:101AD000730B840B950B39F40A2661F0232B242B0E
:101AE000252B21F408950A2609F4A140A6958FEF2D
:101AF000811D811D089597F99F6780E870E060E07F
:101B000008959FEF80EC089500240A941616170696
:101B100018060906089500240A94121613061406DE
:101B200005060895092E0394000C11F4882352F041
:101B3000BB0F40F4BF2B11F460FF04C06F5F7F4FF9
:101B40008F4F9F4F089557FD9058440F551F59F0E0
:101B50005F3F71F04795880F97FB991F61F09F3F9A
:101B600079F087950895121613061406551FF2CFC3
:101B70004695F1DF08C0161617061806991FF1CF13
:101B800086957105610508940895E894BB2766273A
:101B90007727CB0197F908950E94570D08F48FEF2E
:101BA00008950E94E40D0C94920D0E94840D38F06B
:101BB0000E948B0D20F0952311F00C947B0D0C945A
:101BC000810D11240C94C60D0E94A30D70F3959FF6
:101BD000C1F3950F50E0551F629FF001729FBB2724
:101BE000F00DB11D639FAA27F00DB11DAA1F649FC0
:101BF0006627B00DA11D661F829F2227B00DA11D73
:101C0000621F739FB00DA11D621F839FA00D611DF8
:101C1000221F749F3327A00D611D231F849F600D19
:101C2000211D822F762F6A2F11249F5750409AF042
:101C3000F1F088234AF0EE0FFF1FBB1F661F771FCE
:101C4000881F91505040A9F79E3F510580F00C9499
:101C50007B0D0C94C60D5F3FE4F3983ED4F386955C
:101C600077956795B795F795E7959F5FC1F7FE2B39
:101C7000880F911D9695879597F908950E94570DA5
:101C8000880B990B0895A1E21A2EAA1BBB1BFD011C
:101C90000DC0AA1FBB1FEE1FFF1FA217B307E4074B
:101CA000F50720F0A21BB30BE40BF50B661F771FA3
:101CB000881F991F1A9469F7609570958095909583
:101CC0009B01AC01BD01CF010895EE0FFF1F0590F0
:101CD000F491E02D099481E090E0F8940C94700E5A
:101CE000F894FFCF00000000A90116014101F001A6
:101CF0007201500164010000000068031D03980395
:101D0000F90203010903FA020D0A006E616E00690F
:101D10006E66006F766600424D5031383020696E35
:101D200069742073756363657373005072657373B0
:101D30007572653A20002068506100502069733A3E
:101D4000004C6973745F77726974655B695D2069C3
:061D5000733A00693D003A
:107E0000112484B714BE81FFF0D085E080938100F7
:107E100082E08093C00088E18093C10086E0809377
:107E2000C20080E18093C4008EE0C9D0259A86E02C
:107E300020E33CEF91E0309385002093840096BBD3
:107E4000B09BFECF1D9AA8958150A9F7CC24DD24C4
:107E500088248394B5E0AB2EA1E19A2EF3E0BF2EE7
:107E6000A2D0813461F49FD0082FAFD0023811F036
:107E7000013811F484E001C083E08DD089C08234E0
:107E800011F484E103C0853419F485E0A6D080C0E4
:107E9000853579F488D0E82EFF2485D0082F10E0AE
:107EA000102F00270E291F29000F111F8ED06801E7
:107EB0006FC0863521F484E090D080E0DECF843638
:107EC00009F040C070D06FD0082F6DD080E0C81688
:107ED00080E7D80618F4F601B7BEE895C0E0D1E017
:107EE00062D089930C17E1F7F0E0CF16F0E7DF06D8
:107EF00018F0F601B7BEE89568D007B600FCFDCFD4
:107F0000A601A0E0B1E02C9130E011968C91119780
:107F100090E0982F8827822B932B1296FA010C0160
:107F200087BEE89511244E5F5F4FF1E0A038BF0790
:107F300051F7F601A7BEE89507B600FCFDCF97BE46
:107F4000E89526C08437B1F42ED02DD0F82E2BD052
:107F50003CD0F601EF2C8F010F5F1F4F84911BD097
:107F6000EA94F801C1F70894C11CD11CFA94CF0C13
:107F7000D11C0EC0853739F428D08EE10CD085E9AC
:107F80000AD08FE07ACF813511F488E018D01DD067
:107F900080E101D065CF982F8091C00085FFFCCF94
:107FA0009093C60008958091C00087FFFCCF809118
:107FB000C00084FD01C0A8958091C6000895E0E648
:107FC000F0E098E1908380830895EDDF803219F02E
:107FD00088E0F5DFFFCF84E1DECF1F93182FE3DFCA
:107FE0001150E9F7F2DF1F91089580E0E8DFEE27F6
:047FF000FF270994CA
:027FFE00040479
:00000001FF
